:020000008E2A46
:10000800DF00030E8301B2000A08B3008A0150081A
:10001800A1000B1D24288312051920282E08AD00E5
:100028002E08003A031D1B282D0881001F282D08C3
:10003800FF3C8100051523282D08810005110B11AF
:100048002108D00033088A00320E8300DF0E5F0ECD
:0200580009009D
:0C005A0007308312DD00DD0B30280800A9
:1000660083123A0883169B009C131C141A08D100AD
:060076005108D000080053
:10007C00831203132230DC00D801D901DA01DB0131
:10008C00DC03031974280310DB0CDA0CD90CD80C24
:10009C00D30CD20CD10CD00C031C4628DC03031956
:1000AC0066285408D80755080318550FD907560861
:1000BC000318560FDA0757080318570FDB074A289F
:1000CC005408D80755080318550FD90756080318B4
:0E00DC00560FDA0757080318570FDB07080006
:1000EA0083120313D801D9011030DC00510DD80D49
:1000FA00D90D5408D8025508031C550FD902031804
:10010A008D285408D80755080318550FD907031026
:0A011A00D00DD10DDC0B7B2808008E
:1001240083120313DB01DA01D901D801A001530DB5
:10013400D80D5408D8025508031C550FD902560887
:10014400031C560FDA025708031C570FDB02000189
:10015400031C0130A002D30D0730DC00530DD80D71
:10016400D90DDA0DDB0DA00D5408531CCB28D80291
:100174005508031C550FD9025608031C560FDA0202
:100184005708031C570FDB020001031C0130A002B7
:10019400DC28D80755080318550FD9075608031843
:1001A400560FDA0757080318570FDB070001031827
:1001B4000130A007D30DDC0BB028520DD80DD90D9A
:1001C400DA0DDB0DA00D5408531CFA28D80255088B
:1001D400031C550FD9025608031C560FDA025708A0
:1001E400031C570FDB020001031C0130A0020B2982
:1001F400D80755080318550FD90756080318560F82
:10020400DA0757080318570FDB07000103180130FA
:10021400A007D20D0730DC00520DD80DD90DDA0D30
:10022400DB0DA00D5408521C2929D8025508031CC3
:10023400550FD9025608031C560FDA025708031C3F
:10024400570FDB020001031C0130A0023A29D80732
:1002540055080318550FD90756080318560FDA071F
:1002640057080318570FDB07000103180130A007D4
:10027400D20DDC0B0E29510DD80DD90DDA0DDB0D85
:10028400A00D5408521C5829D8025508031C550FB8
:10029400D9025608031C560FDA025708031C570FDD
:1002A400DB020001031C0130A0026929D8075508AC
:1002B4000318550FD90756080318560FDA075708BD
:1002C4000318570FDB07000103180130A007D10DF5
:1002D4000730DC00510DD80DD90DDA0DDB0DA00D62
:1002E4005408511C8729D8025508031C550FD902FC
:1002F4005608031C560FDA025708031C570FDB027B
:100304000001031C0130A0029829D80755080318DE
:10031400550FD90756080318560FDA07570803185C
:10032400570FDB07000103180130A007D10DDC0BC8
:100334006C29500DD80DD90DDA0DDB0DA00D540824
:10034400511CB629D8025508031C550FD90256086A
:10035400031C560FDA025708031C570FDB02000177
:10036400031C0130A002C729D80755080318550FEC
:10037400D90756080318560FDA0757080318570FFA
:10038400DB07000103180130A007D00D0730DC00A3
:10039400500DD80DD90DDA0DDB0DA00D5408501CED
:1003A400E529D8025508031C550FD9025608031C29
:1003B400560FDA025708031C570FDB020001031C17
:1003C4000130A002F629D80755080318550FD9079C
:1003D40056080318560FDA0757080318570FDB0798
:1003E400000103180130A007D00DDC0BCA295018F6
:1003F400092A5408D80755080318550FD907560871
:100404000318560FDA0757080318570FDB070800BD
:10041400C33083129F05F0309F05F03083169F048C
:1004240083129F173408D000D00D5010D00D5010F7
:1004340050089F041F142D209F149F1C232A000082
:100444001F2A1F101E08D100D00183161E08500455
:10045400B5005108B6000030B6043508D00036089F
:04046400D1000800BB
:1004680083120313DB01DA01D9018030D800D10CE3
:10047800D00C031C482A5408D90755080318550FEF
:10048800DA070318DB0A0310D01F502A5408DA07CA
:1004980055080318550FDB07DB0CDA0CD90CD80C00
:1004A800031C3B2A5B08D3005A08D2005908D10024
:0604B8005808D000080006
:1004BE008312B601051A652AB701672A1430B700F0
:1004CE00483037020318832A3708BA003320500801
:1004DE00B800370ABA0033205008B900390835027F
:1004EE00031D7B2A380834020318802A0230B7070E
:0E04FE00812A832AB60A672A3608D000080031
:10050C00A5308312DD00DD0B892A000000000800F5
:10051C008312850183168113151695161515073050
:10052C0083129900013083169F00FB308500AE01C9
:10053C00AF013010831281018316811281110111D8
:10054C0001108B160B178B17B1018312851EAF2A66
:10055C003114851CB22AB1143108033A031DBB2A8D
:10056C006630A5003B30AC00D12A3108023A031D9D
:10057C00C42A7F30A5003230AC00D12A3108013AB0
:10058C00031DCD2AC030A5001930AC00D12A4F3044
:10059C00A5004430AC00B4010A225008AA0051084E
:1005AC00AB000030D200D3009830D4000830D50016
:1005BC00D601D7013E200A30D400D501D601D7018F
:1005CC003E200030DC000430DD00DE01DF012A08B3
:1005DC00D8002B08D900DA01DB015C08D4005D08D7
:1005EC00D5005E08D6005F08D7005808D402590819
:1005FC00031C590FD5025A08031C5A0FD6025B086C
:10060C00031C5B0FD70292200A30D400D501D6010F
:10061C00D70192205008A6005108A7005208A80044
:10062C005308A9002608B4002708B5005F228312DE
:10063C005008A4000030D1002C08D400D50134227D
:10064C000A30D400D501752050082507A2000030CF
:10065C000318013E5107A3002308003C0318382B54
:10066C00FF30A2002208FF3C03183E2BFF30A200F3
:0A067C002208AE008622AA2A422BB3
:02400E00D431AB
:020000040000FA
:1042000082001800680017005C0016005E001500B0
:104210006D00140088001300AE001200DF001100D2
:104220001A0011005F001000AE000F0005000F0023
:1042300064000E00CA000D0038000D00AD000C0037
:1042400029000C00AB000B0032000B00BF000A007D
:1042500052000A00E9000900860009002600090052
:10426000CB0008007500080022000800D2000700FB
:10427000860007003E000700F8000600B6000600B2
:10428000770006003A000600FF000500C8000500A0
:10429000FF00FF00FF00FF00FF00FF00FF00FF0026
:1042A000FF00FF00FF00FF00FF00FF00FF00FF0016
:1042B000FF00FF00FF00FF00FF00FF00FF00FF0006
:1042C000FF00FF00FF00FF00FF00FF00FF00FF00F6
:1042D000FF00FF00FF00FF00FF00FF00FF00FF00E6
:1042E000FF00FF00FF00FF00FF00FF00FF00FF00D6
:1042F000FF00FF00FF00FF00FF00FF00FF00FF00C6
:00000001FF

