:020000040000FA
:1042000082001800680017005C0016005E001500B0
:104210006D00140088001300AE001200DF001100D2
:104220001A0011005F001000AE000F0005000F0023
:1042300064000E00CA000D0038000D00AD000C0037
:1042400029000C00AB000B0032000B00BF000A007D
:1042500052000A00E9000900860009002600090052
:10426000CB0008007500080022000800D2000700FB
:10427000860007003E000700F8000600B6000600B2
:10428000770006003A000600FF000500C8000500A0
:10429000FF00FF00FF00FF00FF00FF00FF00FF0026
:1042A000FF00FF00FF00FF00FF00FF00FF00FF0016
:1042B000FF00FF00FF00FF00FF00FF00FF00FF0006
:1042C000FF00FF00FF00FF00FF00FF00FF00FF00F6
:1042D000FF00FF00FF00FF00FF00FF00FF00FF00E6
:1042E000FF00FF00FF00FF00FF00FF00FF00FF00D6
:1042F000FF00FF00FF00FF00FF00FF00FF00FF00C6
:00000001FF
